:100000000C9439030C9480030C9480030C948003AB
:100010000C9480030C9480030C9480030C94800354
:100020000C9480030C9480030C94B6290C94882AB9
:100030000C94A5200C9480030C9480030C948003F2
:100040000C9480030C9480030C9480030C94800324
:100050000C9480030C94F2200C9480030C94800385
:100060000C9480030C9480030C9480030C94800304
:100070000C9480030C9480030C9480030C948003F4
:100080000C9480030C9480030C9480030C948003E4
:100090000C9480030C9480030C9480030C948003D4
:1000A0000C9480030C9480030C948003C20EC50E44
:1000B000CD0ED20ED70EDC0EE10EE60EEB0EF00EDC
:1000C000F50EFA0EFC0EFF0E020F050F080F0B0FB8
:1000D0000D0F120FEA15EA151C161C166916871665
:1000E000A817A81792162717381738179817A817A0
:1000F000A817A117481848185A185A1851185A180A
:100100005A185A184818481856185A185A1856188B
:10011000F52A1C2B142C1C2B142C682B8B2B142C29
:10012000E22BF12B29001E001F00200021002200DD
:10013000230024002500260027002D002E000000AB
:100140002A002B00000014001A00080015001700F8
:100150001C0018000C00120013002F0030003100AA
:100160003900000004001600070009000A000B0017
:100170000D000E000F003300340028000000E100E5
:1001800000001D001B0006001900050011001000F2
:100190003600370038000000E5000000E000E20013
:1001A0000000E300000000002C0000000000000040
:1001B000E600E70000000251015135003A003B0023
:1001C0003C003D003E003F00400041004200430033
:1001D0004400450000000000000000000000520044
:1001E000000000000000000000000000000000000F
:1001F00000000000000000000000500051004F000F
:10020000000000000000000000000000AA00A9009B
:1002100000000000000000000000000000000000DE
:1002200000000000AD00AC00AB00AE00000000001C
:1002300000000000000000000000000000000000BE
:1002400000000000000000000000000000000100AD
:1002500000000C5C035C00000000000000000000D7
:10026000000000000000000000000000000000008E
:10027000000000000000000000000000000000007E
:10028000000000000000000000000000000000006E
:10029000000000000000000000000000000000005E
:1002A0000000000000000000000000000000BC5C36
:1002B000000000000000000000000000000000003E
:1002C000000000000000000000000000000000002E
:1002D000000000000000000000000000000000001E
:1002E00000000100000032190A00047F3F1F643241
:1002F00014643214783C1E1E140A05222325262875
:10030000292A2C2D2F3032333536383A3B3D3E40AA
:1003100042434547494A4C4E5051535557595A5CF0
:100320005E6062646668696B6D6F71737577797B07
:100330007D7F81838587898A8C8E90929496989A06
:100340009C9E9FA1A3A5A7A8AAACAEAFB1B3B4B61B
:10035000B8B9BBBCBEBFC1C2C3C5C6C7C9CACBCC76
:10036000CDCED0D1D2D2D3D4D5D6D7D7D8D9D9DA49
:10037000DADBDBDBDCDCDCDCDCDDDDDDDDDCDCDCBE
:10038000DCDCDBDBDBDADAD9D9D8D7D7D6D5D4D3E6
:10039000D2D2D1D0CECDCCCBCAC9C7C6C5C3C2C1BB
:1003A000BFBEBCBBB9B8B6B4B3B1AFAEACAAA8A718
:1003B000A5A3A19F9E9C9A98969492908E8C8A89D0
:1003C000878583817F7D7B79777573716F6D6B69AD
:1003D00068666462605E5C5A5957555351504E4C82
:1003E0004A4947454342403E3D3B3A383635333231
:1003F000302F2D2C2A292826252322FFAA7F55407D
:1004000000010101010101010101020202020202D7
:1004100002020203030303030303030404040404AA
:100420000404050505050506060606060707070771
:100430000708080808090909090A0A0A0B0B0B0C26
:100440000C0C0D0D0D0E0E0E0F0F0F1010111111C3
:100450001212131314141515161617171818191944
:100460001A1A1B1B1C1D1D1E1E1F202021222223A9
:100470002424252626272829292A2B2C2D2D2E2FEA
:1004800030313232333435363738393A3B3C3D3E01
:100490003F404142434445464748494A4C4D4E4FF0
:1004A00050515354555658595A5B5D5E5F616264B2
:1004B000656668696B6C6D6F7072737577787A7B3F
:1004C0007D7E8082838587888A8C8E8F9193959696
:1004D000989A9C9EA0A2A3A5A7A9ABADAFB1B3B5B6
:1004E000B7BABCBEC0C2C4C6C9CBCDCFD1D4D6D892
:1004F000DBDDDFE2E4E7E9EBEEF0F3F5F8FAFDFF30
:100500000403300000000A0344005A0036003000A3
:10051000000010034B0042004400460061006E00E2
:10052000730000000403090409023B00020100A05B
:10053000FA09040000010301010009211101000171
:100540002240000705810308000A09040100010395
:1005500000000009211101000122BC0007058203EF
:1005600020000A12011001000000085A4460220114
:10057000000102030105010902A10185020901A18F
:100580000005091901290515002501950575018149
:100590000295017503810105010930093115812595
:1005A0007F95027508810609381581257F950175AB
:1005B000088106050C0A38021581257F950175080A
:1005C0008106C0C005010980A101850319012AB770
:1005D00000150126B700950175108100C0050C09B2
:1005E00001A101850419012AA002150126A0029586
:1005F0000175108100C005010906A10185050507E7
:1006000019E029E715002501950875018102050704
:10061000190029EF1500250195F0750181020508E3
:10062000190129059505750191029501750391013F
:10063000C005010906A101050719E029E7150025F4
:100640000195087501810295017508810105071959
:100650000029FF150026FF00950675088100050892
:1006600019012905950575019102950175039101FF
:10067000C00011241FBECFEFDAE0DEBFCDBF04B64D
:1006800003FE27C080916A0390916B03A0916C03D5
:10069000B0916D038730904BA740B04BD1F41092CE
:1006A0006A0310926B0310926C0310926D0314BED8
:1006B00084B7877F84BF0FB6F894A89580916000B7
:1006C000886180936000109260000FBEE0E0F8E364
:1006D000099511E0A0E0B1E0EEE6FBE502C005906F
:1006E0000D92AE3CB107D9F723E0AEECB1E001C00A
:1006F0001D92AA36B207E1F70E94F4260C94B52D9C
:100700000C940000229A2A9A08950E9474060C9470
:10071000820381FF02C02A9801C02A9A0C94EC033C
:1007200081E0089581E008950C94920308950C945B
:1007300096031F93CF93DF9300D000D01F92CDB7C5
:10074000DEB749835A836B833091420289819A8153
:10075000311114C0662359F0222349F00E94841DF0
:10076000182F682F89819A810E942D1D03C00E9435
:10077000581D182F69817A81812F04C00E94841D21
:1007800069817A810F900F900F900F900F90DF91F9
:10079000CF911F910C945704FC01262F4081518169
:1007A0006281738184810C949903CF93DF93EC0170
:1007B00060E00E94CC03BE01DF91CF910C949703BF
:1007C0000E94B61E811102C00E94691F0E948D10F6
:1007D0000C9485030C947206089581E008950C949E
:1007E000ED03CF93C82F0E9489038C2F0E94EF0343
:1007F000CF91089508950E9436180E94FA032FEFB2
:1008000084E39CE0215080409040E1F700C000006C
:100810000C9418210F931F93CF93DF93EC0161E0A9
:100820000E94CC038C01BE010E9494038823A9F18D
:10083000BE01C8010E94F60F882379F1BE01C801EC
:100840000E946011882349F1BE01C8010E94B211C3
:10085000882319F1BE01C8010E94DD128823E9F046
:10086000BE01C8010E94AB0E8823B9F08A8188239B
:1008700069F001158CE5180731F00E3D1C4531F487
:100880000E94691F0AC00E94FB0307C0CE01DF91CE
:10089000CF911F910F910C94900380E0DF91CF9145
:1008A0001F910F91089580E090E0089508952BE442
:1008B000829FC0011124FC012FE0729FE00DF11D09
:1008C0001124E60FF11DEE0FFF1FEC5DFE4F859129
:1008D00094910895880F991FFC01EA51FD4F85916D
:1008E00094910895CF93DF930E9457040E948A0544
:1008F000EC018115904508F041C0C11580E4D8078E
:1009000008F0D1C0C83ED10510F5C03ED10508F0B1
:10091000FDC0C83AD10578F4C53AD10508F0A2C0A7
:10092000C130D10509F4F2C008F4EEC0C430D105DD
:1009300008F0ECC0E9C0CF3BD10508F49BC0C03C37
:10094000D10508F4E1C0CE01805C91099EC0C115BB
:1009500090E2D90758F4C11521E0D20708F0D6C0BB
:10096000C03FD10508F4D0C0D065D0C0C11580E328
:10097000D80708F08EC0CE019F7087C0C11595E5DD
:10098000D90708F043C0C11524E5D20708F0A2C07A
:10099000C11582E5D80708F5C11591E5D90708F01A
:1009A00085C0CE0174E0969587957A95E1F78370BE
:1009B0009C2F937021E030E002C0220F331F9A95E4
:1009C000E2F73C68382BCF70C695C69580E2C89F89
:1009D000E0011124C22BD32B99C09E012370332731
:1009E0008C2F86958695C115D34508F064C0C1E06B
:1009F000D0E002C0CC0FDD1F2A95E2F720E2829FF3
:100A0000C0011124C82BD92BDC6880C0C11529E591
:100A1000D207A0F4C11588E5D80708F060C0C11559
:100A200096E5D90708F070C08C2F0E941E068F71C2
:100A3000C82FD0E0DC2FCC27D06268C0C1152AE5D2
:100A4000D20708F451C0CE0190568115904208F0AB
:100A50005BC08D2F8F710E941E06DD27D0628F71C3
:100A6000D82B54C0C55AD0E0C65ADE4FC881D0E05A
:100A7000D0644CC0C85AD0E0CC0FDD1FC45DDE4F3F
:100A80000990D881C02DD46441C00E946A04EC0151
:100A90003DC0CE019927D3FF03C0EC01D86C36C00E
:100AA000EC01D06C33C0DF70D06A30C0DC2FCC27B3
:100AB000C16FD06A2BC0C1E0D0E002C0CC0FDD1FF7
:100AC0002A95E2F720E2829FC0011124C82BD92B7E
:100AD000DA681CC0DC2FCC27C46FD06A17C0DC2FAB
:100AE000CC27C06FD06A12C08C2F8F700E941E0658
:100AF00094E0D695C7959A95E1F7CF70D0E0DC2FBA
:100B0000CC27D069C82B02C0C0E0D0E0CE01DF9175
:100B1000CF9108958238910569F1B0F48133910540
:100B200009F46DC048F48932910509F463C08A3232
:100B3000910509F469C008958533910509F455C0FC
:100B400089339105B9F00895833E910569F138F430
:100B5000803E9105B1F0823E910509F10895863EEF
:100B60009105A9F1873E9105B9F1843E910509F0FF
:100B700064C023C020915B0320FD4FC021FD4DC008
:100B8000089580915B0380FD44C080915C0380FFE9
:100B900044C080915B0384FD42C083EE4DC08091D0
:100BA0005B0382FF38C0F5CF80915B0382FD33C0C9
:100BB00080915C0380FD31C0ECCF80915C0381FFAC
:100BC00032C080915B0384FD2AC087EE35C08091DE
:100BD0005B0383FF26C0F5CF80915B0383FD21C0BB
:100BE00080915C0381FD1FC0ECCF80915B0385FD8C
:100BF0001CC01DC080915B0385FD19C016C080918B
:100C00005B0386FD16C017C080915B0386FD13C091
:100C100010C089E311C082EE0FC080EE0DC080E0ED
:100C20000BC086EE09C084EE07C089E205C085E3EB
:100C300003C08AE201C081E390E0089590915B03D4
:100C400092FF0DC0282F2871283019F4877F846007
:100C500006C0282F2471243011F48B7F886093FF05
:100C60000DC0282F2871283119F4877E846106C0B1
:100C7000282F2471243111F48B7E886120915C032C
:100C800020FF0DC0382F3871383019F4877F81600C
:100C900006C0382F3171313011F48E7F886021FF0A
:100CA0000DC0282F2871283119F4877E816106C074
:100CB000282F2171213111F48E7E886194FD877E69
:100CC0000895E82FF0E0EE0FFF1FE95EFC4F8081F2
:100CD00091810895089580EA8A95F1F7089508951D
:100CE0000C946F060C9470060C946F06CF93DF93F0
:100CF000ACE6B1E041E751E061E070E08D91E82FB2
:100D0000E295EF70F0E021A18F70EB0102C0CC0FF3
:100D1000DD1F8A95E2F7CE019C2F9095922391A337
:100D200092A1892B82A34A175B0741F7ADE5B1E099
:100D30004CE651E061E070E08D91E82FE295EF70B4
:100D4000F0E021A18F70EB0102C0CC0FDD1F8A956E
:100D5000E2F7CE019C2F9095922391A392A1892B2B
:100D600082A34A175B0741F7EDE0F3E0A7E1B3E0A8
:100D700087E193E0119211921D921D928E179F07A9
:100D8000C9F785E00E945507DF91CF910C94E003ED
:100D90006F927F928F929F92AF92BF92CF92DF928B
:100DA000EF92FF920F931F93CF93DF938CE6C82EA1
:100DB00081E0D82E0DE013E097E1A92E93E0B92E43
:100DC000712C88248394912CF60181916F01C82F96
:100DD000C295CF70D0E099A18F70740101C0EE0C64
:100DE0008A95EAF7892F8E2989A38AA16E2C6094AF
:100DF00086218AA30E946B06EDE5F1E040E050E019
:100E000020E030E06191A62FA295AF70B0E09096FF
:100E10008C9190E06F7002C0959587956A95E2F786
:100E200080FD08C0C401042E02C0880F991F0A94D7
:100E3000E2F702C080E090E0282B392B4F5F5F4F34
:100E40004F305105F9F689A1682269A28AA1E82AE2
:100E5000EAA2F801808191812817390721F03183B6
:100E6000208381E001C080E0782A0E5F1F4FA0162A
:100E7000B10609F0A9CF272D45E067E173E08DE0C9
:100E800093E00E9456070E94EA03872DDF91CF91DD
:100E90001F910F91FF90EF90DF90CF90BF90AF9098
:100EA0009F908F907F906F9008950895FF920F9379
:100EB0001F93CF93DF93F82E092F162FD72FC42F10
:100EC000222349F081E08093D0010E94D7209093A3
:100ED000CF018093CE018091D0018823D9F08091F9
:100EE000CE019091CF010E94E320069798F0EF2D5C
:100EF000F02FA12FBD2F80E090E04C2F50E0841701
:100F0000950734F4219131912D933D930196F7CFBC
:100F10001092D001DF91CF911F910F91FF90089512
:100F2000EF92FF920F931F93CF93DF938B01682F64
:100F300011110AC0442329F0E82FF0E0E050FC4FE3
:100F40006491762F862F75C0212F30E0E82FF0E0D6
:100F5000442321F0E050FC4FE491F0E046E0049F90
:100F6000C0011124CFEFD0E0BE010E94642C4BEAF7
:100F70004603C001479F900D1124800F911D800FE3
:100F8000911D982F990F890FAE01421B530B4E9F55
:100F9000D0014F9FB00D5E9FB00D11249B2F189F65
:100FA000A0011124452F55278E01041B150B0E9F00
:100FB000A0010F9F500D1E9F500D11247E01E81AB5
:100FC000F108E29E8001E39E100DF29E100D1124A7
:100FD000212F3327C21BD30BCE9F9001CF9F300D03
:100FE000DE9F300D112462307105A9F048F46115BF
:100FF000710569F061307105C9F48B2F752F0DC033
:101000006430710581F058F06630710579F47E2FF7
:101010008B2F932F0DC0832F7B2F9E2F09C08E2FD8
:101020007B2F952F05C08E2F732F02C07E2F852F0B
:10103000692FDF91CF911F910F91FF90EF9008954D
:1010400041E00E94900708950895CF93DF93762F93
:10105000E901682F842F0E942008798368838A839E
:10106000DF91CF91089580912103282F269530E0BC
:101070002115310519F48170826005C02B323105CC
:1010800024F08170846580932103089588E090E0C6
:101090000C94562DCF92DF92EF92FF926B017C0160
:1010A0000E943308B701A60188E090E0FF90EF901E
:1010B000DF90CF900C94742DE1E2F3E083E0808325
:1010C00011828FEF82838383148260817181828198
:1010D00093810C944A088091210380FF02C0869579
:1010E000089580E0089590912503933018F49F5F50
:1010F00090932503882351F060912103709122037E
:1011000080912303909124030C944A08089581E070
:101110000C94730890912503992319F091509093A2
:101120002503882351F0609121037091220380915F
:101130002303909124030C944A08089581E00C94B1
:101140008A0870E00C949D10609108018091210341
:1011500080FF0AC08091070123E0829FC001112413
:101160008A5D9C4F0C94A1088091090190910A011D
:10117000891780F7E82FF0E09F01220F331FE20F5D
:10118000F31FEA5DFC4F1182108212828F5FF0CF55
:101190009091210390FF16C09091090120910A01BE
:1011A000921770F4E92FF0E0DF01AA0FBB1FEA0FDE
:1011B000FB1FEA5DFC4F8183608342839F5FF0CF1A
:1011C0000C94A4080895CF93DF9300D01F92CDB75D
:1011D000DEB79091210390FF0AC09E012F5F3F4F21
:1011E0000E9425084B8169818A810E94C8080F905E
:1011F0000F900F90DF91CF910895CF93DF93EC0183
:10120000EC81F0E0E550FD4F4491E1E2F3E06281D2
:1012100081810E94E3088C818F5F8C83DF91CF9165
:101220000895CF93DF93EC01E1E2F3E04381628123
:101230008C810E94E3088C818F5F8C83DF91CF913A
:1012400008950F931F93CF93DF9300D01F92CDB7D4
:10125000DEB78C018091D10181110AC09E012F5F00
:101260003F4F4FEF6FEF0E9425088A818093D10195
:10127000F8018481813051F028F0823061F440918E
:10128000D1010AC08091D10140E007C06091D10135
:1012900040E080E003C040E080E060E00E94C808D9
:1012A000F801848190E0019663E070E00E94782C60
:1012B00084830F900F900F90DF91CF911F910F912A
:1012C0000895AF92BF92CF92DF92EF92FF920F9369
:1012D0001F93CF93DF9300D01F92CDB7DEB7182FA7
:1012E000F62E042FE22E9091210390FF6DC0E92F7E
:1012F000E695AE2FB0E0AF58BE4F8C9180932B0295
:101300009E7F923061F49E012F5F3F4F812F0E949C
:1013100025084B8169818A810E94C80843C08230B8
:1013200019F4009124033EC0863019F41091220371
:1013300039C08930D9F38931A9F5E9518E2F8170EF
:10134000D82EE695F0E0E550FC4FA590B490C12C66
:10135000BB2460910B01C61618F52C2D30E0A29E1F
:10136000C001A39E900DB29E900D112470E00E94CA
:10137000642C812FD11002C0860F01C0861B909172
:101380000901290F311DA901440F551F240F351FD5
:101390002A5D3C4F402F6F2D0E942508C394D9CF62
:1013A0000E94A40810932203F092230300932403C5
:1013B000EE2051F06091210370912203809123036C
:1013C000909124030E944A080F900F900F90DF9194
:1013D000CF911F910F91FF90EF90DF90CF90BF9032
:1013E000AF900895E1E2F3E09181282F438162817B
:1013F00088E0890F0C94610981E00C94F209E1E224
:10140000F3E09181282F4381628188EF890F0C944A
:10141000610981E00C94FF09E1E2F3E0628128E0D8
:10142000620F08F46FEF282F438181810C946109CA
:1014300081E00C940C0AE1E2F3E0628128E0621B97
:1014400008F460E0282F438181810C94610981E0D8
:101450000C941B0AE1E2F3E0438128E0420F08F418
:101460004FEF282F628181810C94610981E00C94F7
:101470002A0AE1E2F3E0438128E0421B08F440E05D
:10148000282F628181810C94610981E00C94390AD2
:1014900020E00C946109FF920F931F93CF93DF9389
:1014A000EC01F12C0FEF10E060910B01F616F0F457
:1014B000809109012F2D30E0280F311DC901880FBF
:1014C000991F280F391F2A5D3C4F70E0C8010E9408
:1014D000782C962F8C814091240360912303F99EF0
:1014E000800D11240E942508F394DECF0E94A408E9
:1014F0009A818C8190FF02C08F5F01C081508C83E4
:10150000DF91CF911F910F91FF900895BF92CF92DD
:10151000DF92EF92FF920F931F93CF93DF93FC0123
:10152000828180FF02C00FEF01C001E010E08091D6
:101530000B01181708F040C080910901C12ED12C71
:10154000E601C80FD11DCE01880F991FC80FD91F02
:10155000CA5DDC4F198218821A8234E0E32EF12C26
:10156000B12C8091D3018B0D813114F08F7005C0A7
:1015700087FF03C090910B01890F082E000C990B77
:10158000C816D90691F4809124038E9DA0018F9DE9
:10159000500D112455954795559547959E0160919D
:1015A0002303809122030E942508B00EF1E0EF1A78
:1015B000F108B9F61F5FBBCF0E94A4088091D30148
:1015C000013031F4811102C080910B01815007C0BC
:1015D00090E0019660910B0170E00E94782C80935E
:1015E000D301DF91CF911F910F91FF90EF90DF908A
:1015F000CF90BF900895CF938091090190910A01F7
:10160000891770F4E82FF0E09F01220F331FE20FDB
:10161000F31FEA5DFC4F1182108212828F5FF0CFC0
:10162000C0E060910B01C617C0F5EC2FF0E070E050
:10163000CF010E94782C20910901820F2091D201C4
:10164000022E000C330B90E0E217F307CCF0209150
:101650000601022E000C330B2E173F078CF09C0165
:10166000220F331F820F931F9C012A5D3C4F409134
:10167000240360912303809122030E9425080BC05C
:10168000FC01EE0FFF1F8E0F9F1FFC01EA5DFC4F58
:10169000118210821282CF5FC4CF0E94A4082091D1
:1016A00005018091D201820F8093D20190910601B1
:1016B000920F9093060119165CF4082E000C990BFA
:1016C00040910B0150E041505109841795071CF0DF
:1016D000219520930501CF9108958F929F92AF920B
:1016E000BF92CF92DF92EF92FF920F931F93CF930F
:1016F000DF938C01FC014481C42FD0E09E01DE0108
:101700000E94BC2C9B01AC010E94D22C6B017C017D
:10171000E0E2F0E0EC1BFD0BA5E5B0E09B01AC01C5
:101720000E94D22C4B015C019F01DF010E94B42C6E
:101730009B01AC010E94DD2C9B01AC012C0D3D1DD9
:101740004E1D5F1DC501B4010E948C2CC22FD22FEB
:101750002A3228F4F3E02F9F900111240DC025E5D3
:1017600030E02C1B3109C901880F991F280F391F40
:1017700037FF02C02F5F3F4F35952795C22FC09589
:10178000F12C85E5E82EED1A80910B01F816C8F4CE
:10179000F1FC02C08E2D01C08D2F909109012F2DDB
:1017A00030E0290F311DA901440F551F240F351FAB
:1017B0002A5D3C4F4C2F609123030E942508F3942F
:1017C000E3CF0E94A408F8018481811102C091E056
:1017D00003C0803219F49FEF9093040190910401AB
:1017E000890FF8018483DF91CF911F910F91FF90B2
:1017F000EF90DF90CF90BF90AF909F908F90089523
:101800000F931F93CF93DF93EC0100E010E08091E2
:101810000B01282F30E00217130724F590910901DE
:101820009801290F311DA901440F551F240F351FA1
:101830002A5D3C4F869590E04C81081719071CF4EF
:10184000442331F002C0411103C04091240301C080
:1018500040E060912303809122030E9425080F5FDE
:101860001F4FD5CF0E94A4088C8190E00196817013
:1018700099278C83DF91CF911F910F9108958F92BB
:101880009F92AF92BF92CF92DF92EF92FF920F930F
:101890001F93CF93DF93FC01B280948081E0848317
:1018A00000E015E05BE4A52E88248394EE24EA94FE
:1018B000F12C7BE4C72ED12C80910B01081708F086
:1018C0008FC0C02FD0E01C9FF0011D9FF00D112490
:1018D000EC52FE4F911003C01382128267C0238125
:1018E000222389F1215023833481332319F09A2D47
:1018F000921B01C0922F809124031C9FF0011D9F19
:10190000F00D1124EC52FE4F899FC0011124B60145
:101910000E94642C6283211104C0332311F01482CD
:10192000A38222E02B1508F441C01C9FF0011D9FEB
:10193000F00D1124EC52FE4F8091220380838091A0
:101940002303818333C00E94312D8230914074F58E
:1019500082E08B1530F40E94312DB7010E94782C63
:1019600002C0809122031C9FF0011D9FF00D1124E5
:10197000EC52FE4F808322E02B1558F40E94312D4B
:10198000209123032695622F70E00E94782C820F0D
:1019900002C0809123031C9FF0011D9FF00D1124B4
:1019A000EC52FE4F81831282A382848280910901CE
:1019B0009E01280F311DC901880F991F280F391F5B
:1019C0002A5D3C4F1C9FF0011D9FF00D1124EC522D
:1019D000FE4F4281618180810E9425080F5F6CCF9C
:1019E000DF91CF911F910F91FF90EF90DF90CF90FB
:1019F000BF90AF909F908F900C94A408E1E2F3E029
:101A000080818E7F808360817181828193810E9439
:101A10004A0810922C022FEF80E792E0215080407C
:101A20009040E1F700C000000C94A408E1E2F3E06C
:101A300080818E7F808310922C022FEF80E792E0CE
:101A4000215080409040E1F700C000000C94A408B1
:101A500060912103669570E04BE050E08CE091E0EE
:101A60000E94412D892B19F481E080932C020E9461
:101A7000D72090932502809324020895909121030A
:101A800090FF35C09170811102C0926006C08B3208
:101A900010F0946502C0880F982B90932103662361
:101AA00051F0609121037091220380912303909162
:101AB00024030E944A0860912103669570E04BE080
:101AC00050E08CE091E00E94412D892B19F010929A
:101AD0002C0202C00E94280D81E0809327024091D1
:101AE000240360912303809122030C94480A0895F3
:101AF000682F90912103969581E0890F8B3208F031
:101B000081E00C943E0D81E00C94780D682F90914B
:101B1000210396958FEF890F09F48AE20C943E0D0C
:101B200081E00C94860D61E00C943E0DE1E2F3E05F
:101B300080818160808386950C94930D8091210330
:101B400080FD0C94FE0C0C94960D60E00C943E0D00
:101B500080912A0281112EC00E94B61E811104C0FC
:101B60000E94691F0E945C080E944608609321033E
:101B70007093220380932303909324036E7F61F478
:101B80000E945C080E944608609321037093220320
:101B900080932303909324030E94330810922C0215
:101BA0008091210380FF03C086950E94A50D81E0EE
:101BB00080932A020895E1E2F3E0808181608083CE
:101BC00086950C94A50D10922C0208950F931F93E7
:101BD000CF93DF9380912C02882309F49CC08091DD
:101BE0002B02E0912103E695E81BE0932602823068
:101BF00049F4F0E0E950FD4FE491CE2FD0E00DEF35
:101C000018E059C0863049F4F0E0EC50FD4FE49103
:101C1000CE2FD0E001E119E04EC0893051F4E695B5
:101C2000F0E0EF50FD4FE491CE2FD0E00BE41AE04E
:101C300042C08F3051F4E695F0E0E251FD4FE4915F
:101C4000CE2FD0E006E81AE036C0853149F4F0E046
:101C5000E551FD4FE491CE2FD0E00BEF1AE02BC001
:101C60008831D9F0833239F4E9EEF2E0C591D491AC
:101C700001E219E020C08432A9F08532C1F48E2F30
:101C800063E00E94582CE92FF0E0EA51FD4FE49107
:101C9000CE2FD0E00FE31CE00EC0C8E2D0E00DE68E
:101CA0001BE009C0C4EFD1E000E01CE004C0C0EDBF
:101CB000D7E004E218E080912702882389F010928F
:101CC00027020E94D7209E0120953095820F931FF6
:101CD00090932502809324021092290210922802E8
:101CE00080912402909125020E94E3208C179D0789
:101CF00090F0E0912402F0912502CE0FDF1FD093E7
:101D00002502C093240284E292E0F801DF91CF9192
:101D10001F910F910994DF91CF911F910F91089519
:101D2000882311F0FA0101C0FB010994CF93DF93DE
:101D3000C82FD62F0E946B088C1740F00E946B08AA
:101D40008D1720F4DF91CF910C94830D8C2FDF91B0
:101D5000CF910C94930D0F931F93CF93FB01C281EE
:101D6000CC2309F463C08C010E94051E8272F80125
:101D7000E25CFC45E431F10508F059C0EA5AFF4F36
:101D80000C94AE2C0E949E0D06C040E95DE063E815
:101D90007DE00E94900EC0E04AC043E85DE060E94B
:101DA0007DE0F7CF49E05AE06CEF79E0F2CF4CEFFD
:101DB00059E069E07AE0EDCF47E25AE068E17AE085
:101DC000E8CF48E15AE067E27AE0E3CF45E45AE041
:101DD00066E37AE0DECF46E35AE065E47AE0D9CF05
:101DE0004EE958E067E878E0D4CF47E858E06EE97C
:101DF00078E0CFCF81E017C065E082E010C068E0F6
:101E000086E00DC06EE089E00AC064E18FE007C0A3
:101E100067E185E104C088E106C062E289E10E94D1
:101E2000960EB9CF83E20E94930DB5CFC1E08C2FFF
:101E3000CF911F910F9108950E94B61E811102C08B
:101E40000E94691F0E94F11E80935603282F269539
:101E50002695269530E02630310524F0877088627B
:101E6000809356038091560380FF04C08695869523
:101E7000869501C080E00C942B1020915603822F90
:101E8000869586958695482F50E04530510554F447
:101E90008F5F982F990F990F990F822F8770892B39
:101EA00080935603809156038160809356030E946D
:101EB000F51E809156038695869586950C942B1079
:101EC00080915603982F969596959695A1F0915EE0
:101ED000990F990F990F8770892B80935603887FEC
:101EE00091E009F490E08091560390FB80F9809393
:101EF00056030E94F51E8091560386958695869519
:101F00000C942B108091560380FD13C08160809348
:101F10005603813019F489E080935603809156036B
:101F20000E94F51E809156038695869586950C94A1
:101F30002B1008958091560380FF08C08E7F8093F8
:101F400056030E94F51E80E00C942B10089580919A
:101F5000560380FD0C949A0F0C94820F90915603B7
:101F6000892F8695869586958F5F8F7197708630BD
:101F700038F4880F880F880F892B8093560302C08E
:101F80009093560380915603887F91E009F490E086
:101F90008091560390FB80F9809356030E94F51EB2
:101FA000809156038695869586950C942B108630E5
:101FB00008F085E0909156039770282F220F220F8A
:101FC000220F922B90935603987F21E009F420E092
:101FD0009091560320FB90F9909356030C942B108C
:101FE0000E94D70F809156030C94F51E9C01FB01B3
:101FF0008281882349F12D3BFCE53F07C9F040F47D
:102000002B3BECE53E0769F02C3B3C4561F0089525
:102010002F3B9CE5390791F070F0203C3C4589F05E
:10202000089585E001C080E00E94F00F80E00895EF
:102030000E94600FFBCF0E943D0FF8CF0E94A70FB8
:10204000F5CF0E94AE0FF2CF81E00895269A2E9828
:1020500008952E980895CF92DF92EF92FF92CF933A
:10206000C82F863050F4811109C0809180008F7D87
:10207000809380000E94291006C0C5E080918000F6
:102080008062809380002C2F30E0AFEFBFEF0E9482
:10209000BC2C25E030E040E050E00E948C2CC901CF
:1020A0002C3764E1360728F469E070E00E94642C64
:1020B00029C0DA01C9018A50974DAF4FBF4F66273B
:1020C000782F892F9A2F25EF38E241E050E00E94C7
:1020D0008C2C69017A01CA01B9010E94482C9B012C
:1020E000AC01C701B6010E94482CBB27A92F982F2D
:1020F000872F009721E0A207B10511F0BC0102C0B3
:102100006FEF7FEF70938B0060938A00CF91FF9009
:10211000EF90DF90CF90089508950E94261082E2FC
:102120008093800089E1809381008FEF9FEF9093EF
:102130008700809386000C941C0F6A9A2EB12B7F27
:102140003EB134604FB7F894FC01CB01880F991F62
:10215000680F791F6E0F7F1FE617F70789F08191CF
:1021600098E03EB9000000C087FF2EB9880F00003C
:1021700000C000C000C02EB900C09A9591F7ECCF06
:102180004FBF8FE594E00197F1F700C0000008957C
:10219000AF92BF92CF92DF92EF92FF920F931F9375
:1021A000CF93DF937C015B01C42FD22FFC0182818E
:1021B0008823F9F040932F020E94D72090932E029B
:1021C00080932D0280E28C0F883008F06EC0C770BB
:1021D00081E001C0880FCA95EAF7DF91CF911F9186
:1021E0000F91FF90EF90DF90CF90BF90AF900C9445
:1021F000A61580912F02481335C080912D02909131
:102200002E020E94E3206C01B701C5010E94EF1A63
:10221000C816D90638F510E21D0FCD17B9F080E2C7
:102220008C0F883040F4C77081E001C0880FCA95D8
:10223000EAF70E94AD15183058F581E09D2F977090
:1022400001C0880F9A95EAF70E94A615802F0E9478
:102250009315183050F5D77081E001C0880FDA95DA
:10226000EAF70AC080E28C0F8830F8F4C77081E08A
:1022700001C0880FCA95EAF7DF91CF911F910F91A6
:10228000FF90EF90DF90CF90BF90AF900C94AD1582
:10229000802FDF91CF911F910F91FF90EF90DF90F2
:1022A000CF90BF90AF900C949315DF91CF911F9179
:1022B0000F91FF90EF90DF90CF90BF90AF90089577
:1022C0000F939C01CB01233F4CE5340731F188F497
:1022D000283DFCE53F07D9F0293D4CE5340779F16D
:1022E000273D3C45A9F506E221EE41EE67ED7CE590
:1022F0002BC0253FFCE53F07E1F0A8F0263F3C4519
:1023000039F507E225EE46EE66EF7CE51DC007E2F3
:1023100025EE45EE68ED7CE517C006E221EE40EEC5
:1023200063EF7CE511C007E225EE44EE64EF7CE547
:102330000BC006E221EE42EE65EF7CE505C008E247
:1023400021E045EE69ED7CE50E94C81080E008C000
:10235000FC018281882319F010922F0201C081E0D4
:102360000F910895CF93DF93EC01FB0182818823C5
:1023700009F41FC1C230FCE5DF0708F41BC1C631F8
:102380009CE5D90738F09E012A5F3C45293031058C
:1023900008F010C10E94D31E90935C0380935B03EE
:1023A000C031ECE5DE0709F4C3C008F041C0C83015
:1023B0008CE5D80709F49AC0F0F4C430ECE5DE07E8
:1023C00009F487C068F4C2308CE5D80709F477C0F7
:1023D000C330DC4509F0E3C080915B03826076C0C6
:1023E000C630ECE5DE0709F46EC008F07BC08091D2
:1023F0005B0388606BC0CC308CE5D80709F485C0DE
:1024000068F4CA30ECE5DE0709F474C008F079C05E
:102410000E94361880915B03806858C0CE308CE5EE
:10242000D80709F476C008F07FC080915B038BC0A9
:10243000CB3FECE5DE0709F44FC018F5C3318CE55E
:10244000D80709F47DC078F4C131ECE5DE0709F462
:1024500073C0C231DC4509F0A2C00E9436188091D9
:102460005B038F7733C0C5318CE5D80709F472C0A0
:1024700008F486C0CA3FDC4509F091C080915C0336
:102480003EC0CF3FFCE5DF0709F45FC058F4CD3F05
:102490009CE5D90709F444C008F43FC080915C036F
:1024A00082602DC0C130FDE5DF0709F475C008F476
:1024B0005DC0C230DD4509F072C080E06EC0809121
:1024C0005B03816003C080915B03806180935B0349
:1024D00066C080915B0311C080915C038260809331
:1024E0005C035DC080915B038062F0CF80915B03F1
:1024F0008064ECCF80915B0388608460E7CF81606B
:10250000EECF80915B038E7FE1CF80915B038D7F67
:10251000DDCF80915B03877FD9CF80915C0318C0AA
:1025200080915C038D7FDBCF80915B038F7ECECF6C
:1025300080915B038F7DCACF80915B038F7BC6CF79
:1025400080915B03877F8B7FC1CF80915C038D7F00
:102550008E7FC5CF80915B0382FB222720F991E01B
:10256000922790FB82F990FB83F9B0CF80915C03B6
:10257000982F909591708E7F892B90FB81F9AFCF2A
:102580000E94361880915B0387FB222720F991E097
:10259000922790FB87F99ACF81E00E946B1F809170
:1025A0005B0390915C030E94E41E0E94361880E059
:1025B00001C081E0DF91CF910895CF93DF93863101
:1025C0009C4541F5EB010E94051E982F8A812091C0
:1025D000170130911801882379F09A7A81E009F483
:1025E00080E080933002911102C069E201C065E38E
:1025F000C9010E9406200AC080913002811102C0E8
:1026000069E201C065E3C9010E9411200E94531EC6
:1026100080E001C081E0DF91CF9108959093360270
:10262000809335020895E0913502F091360230979B
:1026300021F00190F081E02D099480E00895E0916F
:102640003502F0913602309799F020912B01222328
:1026500059F020915B0327FF07C0DC012C911196F4
:102660002C93119725E02C930280F381E02D09949F
:102670000895E0913502F0913602309739F022E06A
:10268000DC012C930480F581E02D099408952091BC
:102690003302309134022817390771F090933402D5
:1026A00080933302E0913502F0913602309721F0A9
:1026B0000680F781E02D0994089520913102309130
:1026C00032022817390771F0909332028093310259
:1026D000E0913502F0913602309721F00084F185C7
:1026E000E02D0994089585B7806885BF85B7806817
:1026F00085BF089508950C947A130C947B130C9461
:102700007A130C947A130E9473130E947F130C9413
:102710007D1381E008950C9489130E94CE200E94BD
:1027200076060E9488210E941C0F0E94A80D0C941E
:1027300081137F928F929F92AF92BF92CF92DF923E
:10274000EF92FF920F931F93CF93DF93CDB7DEB736
:102750002A970FB6F894DEBF0FBECDBF0E94C80601
:102760000E948B13811111C08FEF89838A831B8292
:102770000E94D7208160782F9D838C8349815A8164
:102780006B818D810E944D144FC048E3A42E42E01E
:10279000B42E00E010E0702E802F0E9461066C01C4
:1027A000F501819091905F0188269926811491040A
:1027B00031F40F5F1F4F0530110569F7D5CF8091B8
:1027C000DA0281FD0E946A0680E0EE24E394F12C97
:1027D00094012E213F21232B09F18E837F82CE206D
:1027E000DF2081E0CD2809F480E088870E94D7208F
:1027F0008160782F9A8789874E815F8168858A8575
:102800000E944D14000F111FF801E85CFD4F8081FC
:102810009181E826F926F182E08206C08F5FEE0CF6
:10282000FF1C8F30A9F6C5CF0E94E60D0E948C10C8
:102830000E9459240E941313909137028917C9F0FE
:102840000E941313809337022A960FB6F894DEBFC6
:102850000FBECDBFDF91CF911F910F91FF90EF90F1
:10286000DF90CF90BF90AF909F908F907F900C940F
:10287000F1032A960FB6F894DEBF0FBECDBFDF91ED
:10288000CF911F910F91FF90EF90DF90CF90BF906D
:10289000AF909F908F907F900895CF93DF93CDB7A7
:1028A000DEB72B970FB6F894DEBF0FBECDBF4F83B8
:1028B000588769877A878B87DE01119686E0FD014C
:1028C00011928A95E9F785E0FE01379601900D9205
:1028D0008A95E1F749815A816B817C818D819E8146
:1028E0000E94F21A2B960FB6F894DEBF0FBECDBF32
:1028F000DF91CF910895FC01808191810E94C61DD6
:102900000895CF93882309F4A4C0C82F8238C1F456
:102910000E94131381FD9DC069E38091170190917E
:1029200018010E9406200E94531E2FEF81EE94E0B2
:10293000215080409040E1F700C0000069E319C0D9
:10294000833801F50E94131380FD83C063E58091F5
:102950001701909118010E9406200E94531E2FEF2C
:1029600081EE94E0215080409040E1F700C00000EB
:1029700063E580911701909118010E941120CF9179
:102980000C94531E8438C1F40E94131382FD61C05D
:1029900067E480911701909118010E9406200E941F
:1029A000531E2FEF81EE94E0215080409040E1F7DC
:1029B00000C0000067E4DDCF8CEF8C0F813AD0F4CB
:1029C0006C2F80911701909118010E94861F882317
:1029D00049F06C2F80911701909118010E941120ED
:1029E0000E94531E6C2F80911701909118010E9434
:1029F0000620C5CF80E28C0F883048F4C77081E094
:102A000001C0880FCA95EAF70E94081EB8CFEBE50F
:102A1000EC0FE33040F4F0E0E653FE4F808190E0AD
:102A2000CF910C944713E8E5EC0FE73150F4F0E058
:102A3000EE0FFF1FE456FE4F80819181CF910C94E1
:102A40005D13C03F30F08C2F0E944E23CF910C9429
:102A50003B24CF910895882309F464C0823879F427
:102A60000E94131381FF5EC069E38091170190916A
:102A700018010E9406200E94531E69E310C083388B
:102A8000B1F40E94131380FF4DC063E580911701DC
:102A9000909118010E9406200E94531E63E58091C8
:102AA0001701909118010E9411200C94531E843834
:102AB00079F40E94131382FF35C067E480911701F7
:102AC000909118010E9406200E94531E67E4E7CFF0
:102AD0009CEF980F913A10F4682FE1CF90E2980F95
:102AE000983050F4877091E001C0990F8A95EAF709
:102AF000892F0E940E1ED9CF9BE5980F933020F4AA
:102B000080E090E00C94471398E5980F973120F4FB
:102B100080E090E00C945D13803F20F00E94B6238B
:102B20000C943B240895CF93C82F0E948114C9337D
:102B300049F42FEF87EE93E0215080409040E1F779
:102B400000C000008C2FCF910C942B15882321F00E
:102B50000E94081E0C94531E0895882321F00E94A1
:102B60000E1E0C94531E0895CF92DF92EF92FF92A7
:102B70000F931F93CF93DF937C01062FC72FFC0188
:102B8000158112951F70D281D1110E94251E0E94BD
:102B9000FE1D882399F0DD2389F08C2F807F8034FF
:102BA00021F080E2800F883048F082E00E949D1E74
:102BB0000E94FE1D91E0D82ED92601C0D12CCC2E2A
:102BC000C2948FE0C8228C2D90E0FC01E659FF4FA3
:102BD0000C94AE2C8C2F807FCF70882311F0C2957F
:102BE000C07FDD2399F0CC2309F48DC180E2800FF2
:102BF000883010F0011104C08C2F0E94081E03C001
:102C00008C2F0E94181E0E94531E7DC1802F0E948F
:102C10002B15CC2309F49CC180E2800F883010F082
:102C2000011104C08C2F0E940E1E03C08C2F0E9425
:102C30001E1E0E94531E8CC18C2F807FCF7080324D
:102C400011F0C295C07F002319F00130C9F022C0F5
:102C5000DD2371F0112341F0113031F40E94381E50
:102C60008C2B0E94401E74C10E94381E8C2B1DC0EC
:102C7000112319F0113009F46BC10E94491E25C0BF
:102C8000DD2321F0163008F063C10EC0153008F0C6
:102C90005FC11BC0DD2361F0112331F0F701858195
:102CA00080FF31C18F7085838C2F0E94A61550C183
:102CB000112359F0093309F037C1FFEF27EE83E004
:102CC000F15020408040E1F72DC18C2F0E94AD15BE
:102CD0003FC18C2F86958695837019F0813061F005
:102CE00037C1DD2321F0802F9C2F937002C080E03C
:102CF00090E00E94471334C1DD2321F0802F9C2FE8
:102D0000937002C080E090E00E945D1329C1802F83
:102D1000DD2319F00E944E2302C00E94B6230E94B8
:102D20003B241EC18C2F837009F045C0D11114C102
:102D3000402F429546954770440F440F602F6F70A7
:102D4000862F90E0A0E0B0E0042E04C0880F991F09
:102D5000AA1FBB1F0A94D2F704FF10C00FE010E0B7
:102D600020E030E004C0000F111F221F331F4A95DE
:102D7000D2F7009510952095309503C000E010E043
:102D80009801C695C695C370BC01CD01602B712B0F
:102D9000822B932BC23049F058F4C13019F00E94B5
:102DA000431CDAC00E94311CD7C00E94551CD4C0FD
:102DB0000E942F1CD1C0DD2319F08C2F817001C01F
:102DC0008695882309F4C8C0402F429546954770E0
:102DD000440F440F602F6F70862F90E0A0E0B0E0AA
:102DE000042E04C0880F991FAA1FBB1F0A94D2F794
:102DF00004FF10C00FE010E020E030E004C0000F3E
:102E0000111F221F331F4A95D2F700951095209568
:102E1000309503C000E010E09801C695C695C370D8
:102E2000BC01CD01602B712B822B932BC23049F05A
:102E300058F4C13019F00E94081D8EC00E94F61C83
:102E40008BC00E941A1D88C00E94691C85C0CF706B
:102E5000DD2339F08C2F0E948F1C802F0E94A61535
:102E60007BC0802F0E94AD158C2F0E94B01C74C0B7
:102E7000023F01F128F4003F41F0013FA1F03FC0C3
:102E8000033FF9F0043F39F13AC0DD2341F015303A
:102E900008F05EC08C2F8F710E94D51C59C016306F
:102EA00008F056C0F7CFDD2339F08C2F8F710E94C8
:102EB0008F1C4EC0DD23C9F38C2F8F710E94B01C74
:102EC00047C0DD2329F08C2F8F710E947A1C40C0EF
:102ED0000E94751C3DC0DD2349F0CF718C2F0E94EC
:102EE0008F1C63E08C2F0E94881E32C081E00E94FC
:102EF0009D1E123068F182E00E949D1E29C0DD23D4
:102F000031F0112391F2802F0E94811421C01123EE
:102F100099F2093349F49FEFE7EEF3E09150E04076
:102F2000F040E1F700C00000802F0E942B1510C078
:102F30004C2F4F70602FC7010E9453040E94A01BAA
:102F40000FC04C2F4F70602FC7010E94560408C05D
:102F500088EF8C0D843020F40E9413130E94F1033B
:102F6000DD20C9F00E94FA1D80FD15C0F701128214
:102F70000E94F41D0E948F1CC7010E94EC170E9442
:102F8000F41DDF91CF911F910F91FF90EF90DF9093
:102F9000CF900C94B01CDF91CF911F910F91FF90B7
:102FA000EF90DF90CF9008950F931F93CF93DF930F
:102FB000EC01688179818A810E94D11D8C010E9477
:102FC0002C1D0E941D1CB801CE010E94B415DF917A
:102FD000CF911F910F910895CF93DF93EC019881CA
:102FE00089812B813C81232B31F08F3F31F481E0AB
:102FF0009F3F19F403C081E001C080E080FD19C04B
:10300000CE010E940A0481110CC00E94FE1D88237B
:1030100081F08A81882369F082E0DF91CF910C945E
:103020009D1ECE010E94D417CE01DF91CF910C944A
:10303000D503DF91CF9108950E94251E0E94351E71
:103040000E94531E0E946C250E943B2480E090E069
:103050000E94471380E090E00C945D13809117016B
:10306000909118010E941C200C941C180E94151E9F
:103070000C942E18E92FE295EF704E2F50E0FA01D4
:103080003297EE30F105B0F4E658FF4F0C94AE2CB9
:10309000803F91F018F4883E68F40EC0843F51F4EC
:1030A0000BC0883E48F0813F29F406C093FB882777
:1030B00080F9089580E0089581E008950E94C61D7A
:1030C0000E943A180895CF93DF9300D000D01F924A
:1030D000CDB7DEB70F900F900F900F900F90DF914C
:1030E000CF910895CF93DF9300D000D000D0CDB71B
:1030F000DEB726960FB6F894DEBF0FBECDBFDF91C8
:10310000CF9108951F93CF93DF93C091430216E0B0
:1031100080914402C81799F0D0E01C9FF0011D9FD8
:10312000F00D1124EB5BFD4F408151816281738171
:10313000848195810E9472182196C770E9CFDF9132
:10314000CF911F9108954091750250917602609140
:103150007702709178028091790290917A020C94B2
:1031600072180F931F93CF93DF9380917A02829509
:103170008F7009F05DC080917702882309F458C0F0
:103180008091430210914402609175027091760221
:10319000C0917802D091790291E06F3F09F090E000
:1031A000292F06E0811709F443C0209721F07F3FC3
:1031B00021F030E003C031E001C0322F90E030FD5B
:1031C00034C0089FF001099FF00D1124DF01AB5BB3
:1031D000BD4F11963C911197371327C03C91361380
:1031E00024C012963C91129731111FC013964D9135
:1031F0005C9114974C1B5D0B483C5105B0F48091D9
:103200007A028F70806180937A02E65BFD4F808145
:103210008F708061808385E792E00E94EC17DF91D8
:10322000CF911F910F910C94821801968770BACF9D
:10323000DF91CF911F910F9108959F92AF92BF920E
:10324000CF92DF92EF92FF920F931F93CF93DF9372
:10325000CDB7DEB761970FB6F894DEBF0FBECDBF16
:103260008C0185E0F801DE011D9601900D928A9592
:10327000E1F7F80140815181E280909175026091FF
:10328000760220917802309179022115310531F0D2
:103290006F3F31F481E09F3F19F403C081E001C02A
:1032A00080E0F82FF1709F2E80FD46C1F801A380C9
:1032B000B48085E7C82E82E0D82EF0907702F50121
:1032C000E21BF30BFF2009F4DFC080917A02E83C97
:1032D000F10508F09BC0282F207F09F052C056133B
:1032E00013C0491311C0FE2CE1100EC08F70806115
:1032F00080937A020E94A318C6010E94EC17809165
:103300007A02F801858358C1AB2831F05F3F31F470
:1033100081E04F3F19F403C081E001C080E080FDEF
:1033200003C081E08E2502C080E090E0F82FF170AC
:10333000FF2E80FF1CC0809143022091440236E0A2
:10334000821709F417C190E0389FF001399FF00D02
:103350001124EB5BFD4F6181561306C0608146135B
:1033600003C06281E61203C001968770E9CFFE2C8C
:10337000EE2009F421C180917A02816080937A0263
:103380005AC0561306C0491304C0E11002C0F80128
:103390009FC04D875E878D859E850E945E1888231D
:1033A00079F1EE2069F120917A02822F82958F7057
:1033B00090E0029774F08091750290917602988760
:1033C0008F831986BB86AA862C87CE0107960E941A
:1033D000EC1786E0F801A5E7B2E001900D928A951E
:1033E000E1F70E94B1180E94A3180DC0561729F1E9
:1033F0004D875E878D859E850E945E1881112CC049
:10340000C8010E94EC17FF24F394D6C0282F207F18
:1034100069F77A2DB98AA88A6E2D89890E94631866
:1034200085E792E00E94EC1786E0F60111928A95FA
:10343000E9F70E94A318F12CBFC04913D9CFE110BE
:10344000D7CFF8018583C8010E94EC1786E0F6010A
:1034500011928A95E9F7B0C0EE2091F220917A029C
:10346000822F82958F7090E002970CF4B2CF8091FA
:103470007502909176029A8389831B82BD82AC8209
:103480002E83CE010196A3CFE83CF10508F047C09A
:10349000FE2CEE2009F4B4CF561330C049132EC0D1
:1034A00020917A0220FD21C0822F82958F70482FB3
:1034B00050E041155105C9F0F80125834F30510501
:1034C00041F08F5F982F9295907F822F8F70892B7C
:1034D0008583C8010E94EC1786E0F801A5E7B2E0F9
:1034E00001900D928A95E1F742C086E0F801A5E7C8
:1034F000B2E001900D928A95E1F75EC04D875E873C
:103500008D859E850E945E18811163CF80917A021D
:10351000816080937A02C8010E94EC174DC07A2D19
:10352000B98AA88A6E2D89890E94631886E0F601FF
:1035300011928A95E9F71BC0EE2009F461CF4D87FF
:103540005E878D859E850E945E18F82E882309F47B
:1035500057CF86E0F801A5E7B2E001900D928A9579
:10356000E1F785E792E00E947B140E94B1180E9467
:10357000A31822C04D875E878D859E850E94C61D3B
:10358000292F22952F70223028F49F7039F0811155
:1035900005C00BC0243028F49F7049F4805E883049
:1035A00020F0C8010E94EC179F2CF92C05C0F801EF
:1035B0009581907F99F7F9CF8F2D61960FB6F8948A
:1035C000DEBF0FBECDBFDF91CF911F910F91FF9056
:1035D000EF90DF90CF90BF90AF909F90089588ECD0
:1035E00090E008951F93CF93DF93CDB7DEB72C976C
:1035F0000FB6F894DEBF0FBECDBF4F8358876987E3
:103600007A878B879C87CE0107960E941D19882395
:10361000D1F09F8188852A853B85232B31F08F3F10
:1036200031F481E09F3F19F403C081E001C080E0E4
:1036300080FD47C04F81588569857A858B859C853B
:103640000E9472183EC086E0FE013796DE01119698
:1036500001900D928A95E1F7FF81E8856A857B8567
:103660006115710531F0EF3F31F481E0FF3F19F44E
:1036700003C081E001C080E080FD23C020914402AE
:1036800030E0C9010196877099274091430250E0CC
:1036900084179507F1F1F983EA837D836C8396E0C3
:1036A000929FD001939FB00D1124AB5BBD4FFE01E3
:1036B000319601900D929A95E1F7809344020E9411
:1036C000821816E08091430290914402891771F1AB
:1036D000189FC00111248B5B9D4F0E941D198823E8
:1036E00029F1E09143021E9FF0011124EB5BFD4F95
:1036F0004081518162817381848195810E94721819
:103700008091430290E0019687709927809343024D
:10371000D9CF0E9436181092440210924302E5E776
:10372000F2E086E0DF011D928A95E9F72C960FB64C
:10373000F894DEBF0FBECDBFDF91CF911F910895EA
:10374000EF92FF920F931F93CF93DF938C01892BFE
:1037500009F46CC0F12CEE24E394E8012196F80101
:103760008491843740F4843008F051C0813081F076
:10377000823019F15BC0853709F444C0A8F19CE799
:10378000980F903708F052C08F770E942B1541C0D8
:103790000E5F1F4FFE01849190E2980F983050F415
:1037A0008770FE2D01C0FF0F8A95EAF78F2F0E94C8
:1037B000281E14C00E9481142DC00E5F1F4FFE01F1
:1037C000849190E2980F983060F48770FE2D01C0CC
:1037D000FF0F8A95EAF78F2F0E942E1E0E94531E1C
:1037E00019C00E942B1516C00E5F1F4FFE01C49119
:1037F000CC2381F08FE99FE00197F1F700C0000032
:10380000C150F6CF0E5F1F4FFE01F49003C00E941F
:1038100081148E018F2D882309F49FCFEFE9FFE0FB
:103820003197F1F700C000008150F5CFDF91CF91C3
:103830001F910F91FF90EF900895089508950C94B3
:103840001E1C0C941F1C0E94211C6093B1027093DB
:10385000B2028093B3029093B4020C941C180C949F
:10386000231C0F931F930091B1021091B20220917B
:10387000B3023091B402602B712B822B932B1F91DA
:103880000F910C94231C0F931F930091B102109180
:10389000B2022091B3023091B402602371238223DB
:1038A00093231F910F910C94231C0F931F9300914E
:1038B000B1021091B2022091B3023091B40260279C
:1038C0007127822793271F910F910C94231C0C942E
:1038D0001E1C0E94671C6093AD027093AE02809321
:1038E000AF029093B0020C941C1860E070E0CB0122
:1038F0000C94691C0F931F9341E050E060E070E06E
:103900008A019B0104C0000F111F221F331F8A95DB
:10391000D2F7C901B8011F910F910C94691C0F9344
:103920001F9341E050E060E070E004C0440F551F79
:10393000661F771F8A95D2F78091AD029091AE02F3
:10394000A091AF02B091B0028A019B01082B192B04
:103950002A2B3B2BC901B8011F910F910C94691CB4
:103960000F931F9341E050E060E070E004C0440F0B
:10397000551F661F771F8A95D2F740955095609521
:1039800070958091AD029091AE02A091AF02B0917E
:10399000B0028A019B01082319232A233B23C90172
:1039A000B8011F910F910C94691C0F931F9341E074
:1039B00050E060E070E004C0440F551F661F771FA1
:1039C0008A95D2F78091AD029091AE02A091AF029C
:1039D000B091B0028A019B01082719272A273B27AB
:1039E000C901B8011F910F910C94691C0F931F938B
:1039F0000091AD021091AE022091AF023091B00261
:103A0000602B712B822B932B1F910F910C94691CAF
:103A10000F931F930091AD021091AE022091AF025F
:103A20003091B00260237123822393231F910F9161
:103A30000C94691C0F931F930091AD021091AE027C
:103A40002091AF023091B00260277127822793271F
:103A50001F910F910C94691C08952FE0929F800D87
:103A60001124E82FE695E695E695877051E001C0B0
:103A7000550F8A95EAF785E0E89FF0011124E55893
:103A8000FD4F20E030E070E04081CB01022E02C00B
:103A9000969587950A94E2F781708195842785230E
:103AA000842781932F5F3F4F2530310569F70895B3
:103AB0002FE0929F800D1124682F6695669566957C
:103AC000982F977085E0689FB001112440E050E086
:103AD00080E0FB01E40FF51FE558FD4F208130E049
:103AE000092E02C0369527950A94E2F721703327F4
:103AF000042E01C0220F0A94EAF7822B4F5F5F4F1A
:103B00004530510531F70895BF92CF92DF92EF9281
:103B1000FF920F931F93CF93DF938C01C090AD0260
:103B2000D090AE02E090AF02F090B0028091B1026E
:103B30009091B202A091B302B091B402C82AD92ADE
:103B4000EA2AFB2ACFE1D0E0D701C6010C2E04C03F
:103B5000B695A795979587950A94D2F780FD04C0EE
:103B6000219790F7B12C07C0BC2EB8018C2F0E9472
:103B700072040197A9F38B2DDF91CF911F910F91C3
:103B8000FF90EF90DF90CF90BF900895CF93DF9399
:103B9000EC010E94841DBE010E947204DF91CF914E
:103BA00008951F93CF93DF93EB01909142029923E5
:103BB00021F0CB010E94C61D13C0882349F0CB0120
:103BC0000E94841D182F682FCE010E942D1D04C055
:103BD000CB010E94581D182FBE01812F0E94720434
:103BE000DF91CF911F9108958091B50285958595BC
:103BF000859508958091B502877008959091B502DA
:103C0000977081E009F480E008958091D9020895C9
:103C10009091D902892B8093D90208958095909133
:103C2000D90289238093D90208951092D902089568
:103C30009091D802892B8093D80208958095909115
:103C4000D80289238093D80208951092D80208954B
:103C50009091D702892B8093D702089580959091F7
:103C6000D70289238093D70208951092D70208952E
:103C70008091B602089508950C943B1E0C943C1E4E
:103C80009091B602981721F08093B6020C943E1ED4
:103C900008958091B602882329F01092B60280E040
:103CA0000C943E1E0895E0911701F0911801809147
:103CB000D9028083E0911701F091180190818091E1
:103CC000D802892B8083E0911701F091180190812F
:103CD0008091D702892B80838091B602882381F05E
:103CE000E0911701F09118019081892B80838091D8
:103CF0001701909118010E94701F81110E94491EA6
:103D000080911701909118010C941F130C943B1E85
:103D100098E0899F90011124262B2093B5020E94E0
:103D20008F1C8091B5028595859585950C94861E8E
:103D30001092B50280E00C94861E2091B502809509
:103D400082238093B502982F977079F430E0482F42
:103D5000082E000C550B2417350739F085958595ED
:103D600085950E94B01C0C94981E089580E090E008
:103D70000E945C2D21E08C3E9E4F09F020E0822FB6
:103D8000089582E090E00C944E2D682F82E090E040
:103D90000C94622D83E090E00C944E2D682F83E00C
:103DA00090E00C94622DCF9384E090E00E944E2D21
:103DB000C82F81E290E00E944E2D2C2F30E0A90107
:103DC000582BCA01CF910895CF93C92F682F84E053
:103DD00090E00E94622D6C2F81E290E0CF910C94D4
:103DE000622D86E090E00C944E2D682F86E090E0E6
:103DF0000C94622DAB01BC018FE090E00C94742D0B
:103E0000AB01BC0183E190E00C94742D60E070E0A4
:103E1000CB010C94001F60E070E0CB010E94FA1E01
:103E20000C94061F6CEE7EEF80E090E00E94802DE7
:103E300060E082E090E00E94622D60E083E090E02C
:103E40000E94622D1092B1021092B2021092B3023F
:103E50001092B40260E084E090E00E94622D60E085
:103E600081E290E00E94622D60E085E090E00E9497
:103E7000622D60E086E090E00E94622D6FEF87E0A7
:103E800090E00E94622D40E050E0BA0188E090E0AE
:103E90000E94742D60E08DE090E00E94622D40E071
:103EA00050E0BA0188E190E00E94742D60E087E163
:103EB00090E00E94622D40E050E0BA018CE190E079
:103EC0000E94742D60E080E290E00E94622D0C94CC
:103ED0000B1F0C94121F682F8EE090E00C94622D43
:103EE000FC01329680912B01882331F080915B0395
:103EF00087FF02C09EE101C096E080E0915028F06B
:103F000021912223D9F38F5FF9CF0895662351F1D0
:103F100020912B012223E9F020915B0327FF19C098
:103F2000462F4695469546954E31E0F4677021E060
:103F300030E002C0220F331F6A95E2F7FC01E40F64
:103F4000F11D828190E02823392381E0232B69F43D
:103F500009C0FC01329608962191621729F0E817F2
:103F6000F907D1F780E0089581E008959C01FC01F4
:103F700032969FEF80E04191461789F09F3F19F4F8
:103F8000411101C0982F8F5F8630A9F79F3F39F00C
:103F9000F901E90FF11D97FDFA95628308950895DF
:103FA0009C012A5F3F4FFC014281461301C01282EF
:103FB000019682179307B9F70895262F269526951F
:103FC00026952E3168F4FC01E20FF11D677021E0A7
:103FD00030E001C0220F6A95EAF78281282B228304
:103FE0000895262F2695269526952E3170F4FC01EE
:103FF000E20FF11D677021E030E001C0220F6A95E9
:10400000EAF72095828128232283089520912B01AD
:10401000222329F020915B0327FD0C94DD1F0C94D3
:10402000B61F20912B01222329F020915B0327FD4D
:104030000C94F11F0C94D01F20912B01FC0132969F
:10404000222331F080915B0387FF02C08EE101C023
:1040500086E0DF011D928A95E9F7089508950C9492
:104060002E200C942E20CF930E9431200E94C8064F
:104070000E942F20C0E08C2F0E946106892B29F41A
:10408000CF5FC530C1F780E001C081E0CF910895D6
:104090000C942E200C9448200E944A2080916103A9
:1040A000843009F43CC01092DB0220E488E190E007
:1040B0000FB6F894A895809360000FBE209360001F
:1040C00080E00E942B1080E00E94F1030E94E30D2B
:1040D0008091DC0281110AC081E08093DC02809132
:1040E000210381708093DD020E94160D0E944A20F8
:1040F00083B7817F846083BF83B7816083BF7894F7
:10410000889583B78E7F83BF0FB6F894A89580916A
:104110006000886180936000109260000FBE089577
:104120000C942E200E9436180E941C0F0E9413131C
:104130000E94F1031092DC028091DD0281110E9445
:10414000DB0D0E94280D0C9490201F920F920FB649
:104150000F9211248F939F93AF93BF938091DB02B3
:10416000811113C08091570390915803A091590376
:10417000B0915A034196A11DB11D809357039093AE
:104180005803A0935903B0935A03BF91AF919F91E5
:104190008F910F900FBE0F901F90189582E084BDF5
:1041A00093E095BD9AEF97BD80936E0008952FB769
:1041B000F8948091570390915803A0915903B091BE
:1041C0005A032FBF08959C014FB7F894809157036D
:1041D00090915803A0915903B0915A034FBF821B8D
:1041E000930B089578941F920F920FB60F9211249B
:1041F0008F939F93AF93BF938091570390915803F0
:10420000A0915903B0915A030196A11DB11D80934D
:10421000570390935803A0935903B0935A03BF9147
:10422000AF919F918F910F900FBE0F901F90189597
:1042300081E08093E00080E28093D8001092C90072
:104240008FE19EE40197F1F700C0000087E090EB5A
:10425000DC0180936A0390936B03A0936C03B0938B
:104260006D039CE088E10FB6F894A89580936000F8
:104270000FBE90936000FFCFAF92BF92CF92DF92BC
:10428000EF92FF920F931F93CF93C0E0CC24C3947F
:10429000D12CE82EF12C8C2F0E9461065C0100E0ED
:1042A00010E0C601002E02C0880F991F0A94E2F7A1
:1042B0008A219B21892B31F40F5F1F4F0F3011058D
:1042C00081F70AC0602F7C2F80E00E945704E81617
:1042D000F90691F781E004C0CF5FC530E1F680E0D8
:1042E000CF911F910F91FF90EF90DF90CF90BF90F3
:1042F000AF900895CF93C82F8CE20E943C21882371
:1043000021F08C2FCF910C943C2180E0CF91089527
:10431000CF930E94B61E811102C00E94691FC5E69C
:10432000C15049F00E94C8068FE39CE90197F1F75C
:1043300000C00000F5CF89E20E947A2181112AC1D4
:104340008AE20E947A2181110E94691F85E00E9401
:104350007A2181110E9418210E94C11E8093DA02E5
:1043600087E00E947A218823A9F18BE10E947A21BB
:10437000882351F08091DA0281FB222720F991E015
:10438000922790FB81F90EC08EE00E947A2188234B
:1043900061F08091DA0282FB222720F991E09227D6
:1043A00090FB82F98093DA0215C080E10E947A21A5
:1043B0009091DA02882341F093FB222720F981E0D3
:1043C000822780FB93F904C0892F809580FB90F9A8
:1043D0009093DA028091DA020E94C51E0E94D31ED9
:1043E00090935C0380935B0380EE0E947A21882384
:1043F00041F080915B03982F909590FB80F980931A
:104400005B0389E30E947A21882359F080915B0342
:1044100081FB222720F991E0922790FB81F980937C
:104420005B0382EE0E947A21882359F080915B031E
:1044300082FB222720F991E0922790FB82F980935A
:104440005B0386EE0E947A21882359F080915B03FA
:1044500083FB222720F991E0922790FB83F9809338
:104460005B0383EE0E947A21882359F080915B03DD
:1044700084FB222720F991E0922790FB84F9809316
:104480005B0385E30E947A21882359F080915B03C6
:1044900085FB222720F991E0922790FB85F98093F4
:1044A0005B0381E30E947A21882359F080915B03AA
:1044B00086FB222720F991E0922790FB86F98093D2
:1044C0005B0381E10E947A21882359F080915B038C
:1044D00087FB222720F991E0922790FB87F98093B0
:1044E0005B0380915B0390915C030E94E41E87E272
:1044F0000E947A21C82F8EE10E947A218111C26028
:104500008FE10E947A218111C46080E20E947A21A9
:104510008111C86081E20E947A218111C06182E22A
:104520000E947A218111C06283E20E947A21811166
:10453000C06484E20E947A21882311F0C06802C01E
:10454000CC2329F08C2F0E94CE1E6C2F03C00E941A
:10455000CA1E682F70E080E090E00E942F1C6091DE
:10456000AD027091AE028091AF029091B0020E94B4
:10457000671C8FE00E947A21882319F081E00E9455
:104580006B1F85E10E947A21882321F080E0CF9182
:104590000C946B1FCF9108958091E40280FF0BC0B3
:1045A00060911E0185E0689FB001112475956795A3
:1045B000759567952BC081FF09C060911E0185E04C
:1045C000689FB00111247595679520C082FF07C0D0
:1045D00060911E0185E0689FB001112417C0909181
:1045E000E3029923D1F060911D01961788F720917D
:1045F0001E0185E0289F90011124929FA001939FA6
:10460000500D112470E0CA010E94782C60387105A9
:1046100040F46115710519F406C065E070E0862F5D
:1046200008958FE7089581E008958091E40280FF66
:1046300008C060911A0170E075956795759567954A
:1046400021C081FF06C060911A0170E075956795E1
:1046500019C082FF04C060911A0170E010C09091EF
:10466000E202992399F0609119019617A0F78091C1
:104670001A01899FC001112470E00E94782C6038D3
:10468000710540F46115710519F406C061E070E030
:10469000862F08958FE7089581E00895803F21F4E3
:1046A0000E94CC22819504C0813F29F40E94CC2233
:1046B0008093E8020895823F21F40E94CC228195E4
:1046C00004C0833F29F40E94CC228093E70208951E
:1046D000893F19F40E94152305C08A3F31F40E94D6
:1046E000152381958093E90208958B3F21F40E9460
:1046F0001523819504C08C3F29F40E9415238093D3
:10470000EA020895843F21F48091E602816017C097
:10471000853F21F48091E602826011C0863F21F43A
:104720008091E60284600BC0873F21F48091E6020D
:10473000886005C0883F31F48091E60280618093F3
:10474000E60208958D3F21F48091E40281600BC060
:104750008E3F21F48091E402826005C08F3F29F4EE
:104760008091E40284608093E4020895803F39F4EC
:104770008091E80287FF6AC01092E80267C0813F1B
:1047800029F48091E8021816BCF360C09091E7020A
:10479000823F29F497FF5AC01092E70257C0833F27
:1047A00019F41916CCF352C09091E902893F31F403
:1047B00019160CF04BC01092E90248C08A3F19F458
:1047C00097FF44C0F8CF8B3F39F48091EA0287FF0E
:1047D0003DC01092EA023AC08C3F29F48091EA026F
:1047E0001816BCF333C0843F21F48091E6028E7F1B
:1047F00017C0853F21F48091E6028D7F11C0863F6E
:1048000021F48091E6028B7F0BC0873F21F48091D9
:10481000E602877F05C0883F31F48091E6028F7EF3
:104820008093E60213C08D3F21F48091E4028E7FD5
:104830000BC08E3F21F48091E4028D7F05C08F3F35
:1048400029F48091E4028B7F8093E4028091E70257
:10485000811106C08091E802811102C01092E3022A
:104860008091E902811106C08091EA02811102C0A3
:104870001092E20208950E94D7202091E7022111B0
:1048800004C02091E802222321F09093E10280935A
:10489000E0022091E902211104C02091EA022223C2
:1048A00021F09093DF028093DE0285EE92E00C947B
:1048B0003913EF92FF920F931F93CF93DF9300D0A2
:1048C00000D000D0CDB7DEB786E0E5EEF2E0DE0145
:1048D000119601900D928A95E1F7E090E702F09031
:1048E000E8020091E9021091EA021092E7021092A8
:1048F000E8021092E9021092EA02E11003C0FF20E0
:1049000009F45DC08091E0029091E1020E94E320F1
:10491000AC019091E302992339F020911F0130E01E
:104920002417350758F04BC0209120018AE0289FBA
:10493000900111242417350718F041C09F3F19F04A
:104940009F5F9093E302EE2061F00E94CC221E1440
:1049500014F09FEF01C091E0989F902D1124909347
:10496000E702FF2061F00E94CC221F1414F09FEF99
:1049700001C091E0989F902D11249093E80230910E
:10498000E7023323E1F02091E8022223C1F045EB56
:104990003403C0011124992319F09093E70203C056
:1049A00081E08093E70235EB2303C00111249923B2
:1049B00019F09093E80203C081E08093E8020111AE
:1049C00003C0112309F45DC08091DE029091DF02E3
:1049D0000E94E320AC019091E202992339F02091EA
:1049E0001B0130E02417350758F04BC020911C0103
:1049F0008AE0289F900111242417350718F041C040
:104A00009F3F19F09F5F9093E202002361F00E94A4
:104A10001523101614F09FEF01C091E0989F902D80
:104A200011249093E902112361F00E9415231116BD
:104A300014F09FEF01C091E0989F902D1124909366
:104A4000EA023091E9023323E1F02091EA022223C5
:104A5000C1F045EB3403C0011124992319F0909360
:104A6000E90203C081E08093E90235EB2303C00132
:104A70001124992319F09093EA0203C081E08093F6
:104A8000EA028091E70281110BC08091E802811156
:104A900007C08091E902811103C08091EA0281116F
:104AA0000E943B24EB82FC820D831E8386E0FE0184
:104AB0003196A5EEB2E001900D928A95E1F7269627
:104AC0000FB6F894DEBF0FBECDBFDF91CF911F911F
:104AD0000F91FF90EF900895E5EEF2E086E0DF01A0
:104AE0001D928A95E9F71092E3021092E202109269
:104AF000E402089580910B030895CF93DF9300D0D3
:104B00001F92CDB7DEB790916103943019F5898378
:104B10007B836A8382E08093E9008FEF9091E800C5
:104B2000815095FD06C095ED9A95F1F70000811131
:104B3000F5CF8091E80085FF0DC040E050E063E0D4
:104B400070E0CE0101960E94AA278091E8008E773E
:104B50008093E8000F900F900F90DF91CF91089510
:104B6000BC0184E00C947D25BC0183E00C947D2580
:104B700022E02093E9002FEF3091E800215035FD2D
:104B800006C035ED3A95F1F700002111F5CF2091DF
:104B9000E80025FF0BC040E050E066E070E00E94B6
:104BA000AA278091E8008E778093E8000895CF933C
:104BB000DF9320912B01222339F020915B0327FF03
:104BC00003C060E222E002C068E021E02093E90037
:104BD0002FEF3091E800215035FD06C035ED3A95B4
:104BE000F1F700002111F5CF2091E80025FF1DC04D
:104BF000EC0180912B01811105C040E050E068E09C
:104C000070E003C070E040E050E0CE010E94AA27AF
:104C10008091E8008E778093E80080E2FE01ABEEA1
:104C2000B2E001900D928A95E1F7DF91CF9108955E
:104C300080916003811109C00E943B290E9498293C
:104C40008091E20084608093E200089510926003F6
:104C50000895089508950C94922042E061EC81E05B
:104C60000E94B42842E261EC82E00C94B428809166
:104C70006303833009F460C030F4813071F0823016
:104C800009F499C008958A3009F485C08B3009F47D
:104C90006BC0893009F0A7C020C080916203813ABF
:104CA00009F0A1C08091E800877F8093E80080919F
:104CB000660390916703892B21F460E28BEE92E00A
:104CC00003C060E080E090E070E00E94F5278091F2
:104CD000E8008B778093E800089580916203813229
:104CE00009F081C08091660390916703029708F0F4
:104CF0007AC08091E800877F8093E8008091E80087
:104D000082FD05C0809161038111F8CF6CC02091B4
:104D1000F3008091F20090E0922B029729F48091A9
:104D2000F1008B7F813021F48091F10080930B039F
:104D30008091E8008B7753C080916203813A09F03B
:104D400052C08091660390916703892B09F04BC094
:104D50008091E800877F8093E8008091E80080FFE1
:104D6000FCCF80912B0136C0809162038132D9F54E
:104D70008091660390916703892BA9F58091E800E3
:104D8000877F8093E8000E94E928809164038093E4
:104D90002B010C94361880916203813221F58091A9
:104DA000E800877F8093E8000E94E92880916503EE
:104DB00080930C03089580916203813AA1F480915D
:104DC000E800877F8093E8008091E80080FFFCCFB7
:104DD00080910C038093F1008091E8008E7780939E
:104DE000E8000C94E928089584B7877F84BF0FB644
:104DF000F894A8958091600088618093600010927B
:104E000060000FBE90E080E80FB6F89480936100D8
:104E1000909361000FBE0E9483130E943B290E9461
:104E200098298091E20084608093E20078940E9447
:104E30002D2C0E948D1381E291E00E940E1380912F
:104E40006103853069F40E944C2080915F038823C0
:104E5000B1F30E943320882391F30E949427EFCF6F
:104E60000E949913ECCF0C943527292F3327233038
:104E70003105C9F060F42130310581F0223031056F
:104E800009F04AC08BE390E028E235E049C02132C6
:104E9000310511F12232310579F13EC082E190E015
:104EA00023E635E03DC099278130910561F040F05F
:104EB0008230910559F0039779F5E0E0F5E008C0FC
:104EC000E4E2F5E005C0E2E1F5E002C0E6E0F5E08D
:104ED000849190E09F0124C06115710541F061301B
:104EE0007105D1F489E090E023E535E019C089E04F
:104EF00090E02AE335E014C06115710541F061309E
:104F0000710551F48CEB90E025E735E009C080E4B1
:104F100090E021E336E004C080E090E020E030E063
:104F2000FA0131832083089580E189BD82E189BD42
:104F300009B400FEFDCF8091D8008F7D8093D8000A
:104F40008091E00082608093E0008091E00081FD2C
:104F5000FCCF0895CF92DF92EF92FF920F931F93B1
:104F6000CF93DF93EC018B017A010E940829811114
:104F700033C0E114F10439F0F70180819181081BFD
:104F8000190BC80FD91FC12CD12C0115110519F10E
:104F90008091E80085FD16C08091E8008E778093AF
:104FA000E800E114F10449F0F70180819181C80E15
:104FB000D91ED182C08285E00FC00E9408298823B3
:104FC00021F30AC089918093F10001501109FFEF8C
:104FD000CF1ADF0ADACF80E0DF91CF911F910F91D6
:104FE000FF90EF90DF90CF9008952091680330916B
:104FF00069032617370748F06115710539F42091C8
:10500000E8002E772093E80001C0B901FC0120E000
:105010006115710579F1809161038823F1F1853083
:10502000F1F18091E80083FD3CC08091E80082FDB1
:105030002EC08091E80080FFEBCF2091F30080919B
:10504000F20090E0922B6115710551F088309105C6
:1050500038F421912093F100615071090196F3CF4A
:1050600021E0089709F020E08091E8008E77809396
:10507000E800CECF2111CFCF0AC0809161038823F1
:1050800061F0853061F08091E80083FD0AC0809175
:10509000E80082FFF2CF80E0089582E0089583E087
:1050A000089581E0089520916803309169032617DF
:1050B000370748F06115710539F42091E8002E7723
:1050C0002093E80001C0B901FC0120E061157105E1
:1050D00091F180916103882309F440C0853009F47F
:1050E0003FC08091E80083FD3DC08091E80082FDD3
:1050F0002FC08091E80080FFE9CF2091F3008091DC
:10510000F20090E0922B6115710559F088309105FD
:1051100040F424912093F100319661507109019679
:10512000F2CF21E0089709F020E08091E8008E7727
:105130008093E800CBCF2111CCCF0AC080916103CE
:10514000882361F0853061F08091E80083FD0AC01A
:105150008091E80082FFF2CF80E0089582E0089518
:1051600083E0089581E00895982F973068F5909333
:10517000E900981739F07091EC002091ED00509102
:10518000F00003C0242F762F50E021FD02C09F5F66
:10519000ECCF3091EB003E7F3093EB003091ED008F
:1051A0003D7F3093ED003091EB0031603093EB00A8
:1051B0007093EC002093ED005093F0002091EE00EE
:1051C00027FDE5CF80E008958F708093E90081E0AE
:1051D00008958091620387FF11C08091E80082FDED
:1051E00005C0809161038111F8CF11C08091E80062
:1051F0008B770BC080916103882349F08091E80090
:1052000080FFF8CF8091E8008E778093E8000895C2
:105210002091E4003091E50095E64091EC00842F68
:10522000817040FF23C08091E80080FD1DC0809107
:105230006103882399F0853099F08091EB0085FD1A
:1052400011C04091E4005091E5002417350729F37F
:10525000915011F09A01E1CF84E0089582E0089521
:1052600083E0089581E0089580E008954091E8008A
:1052700042FFDDCF08950E94A9290E94B129E0EEE6
:10528000F0E0808181608083E8EDF0E080818F77BD
:10529000808319BCA7EDB0E08C918E7F8C938081C8
:1052A0008F7E80831092600308950F931F93CF9396
:1052B000DF930E94A9290E94B129C8EDD0E088811E
:1052C0008F77888388818068888388818F7D8883B1
:1052D00019BC1092610310925D0310925F0310924B
:1052E0005E0300EE10E0F80180818B7F808388816F
:1052F0008160888342E060E080E00E94B428E1EEB3
:10530000F0E080818E7F8083E2EEF0E0808181603A
:105310008083808188608083F80180818E7F808394
:10532000888180618883DF91CF911F910F910895CB
:10533000E8EDF0E080818F7E8083E7EDF0E0808112
:105340008160808384E082BF81E0809360030C945D
:105350005529E8EDF0E080818E7F80831092E20095
:1053600008951092DA001092E10008951F920F92B2
:105370000FB60F9211242F933F934F935F936F9328
:105380007F938F939F93AF93BF93EF93FF938091FE
:10539000E10082FF0BC08091E20082FF07C0809194
:1053A000E1008B7F8093E1000E942C2C8091DA0039
:1053B00080FF1FC08091D80080FF1BC08091DA0061
:1053C0008E7F8093DA008091D90080FF0DC080E14C
:1053D00089BD82E189BD09B400FEFDCF81E08093E3
:1053E00061030E94182605C019BC109261030E9437
:1053F00026268091E10080FF19C08091E20080FFA5
:1054000015C08091E2008E7F8093E2008091E200DF
:1054100080618093E2008091D80080628093D80000
:1054200019BC85E0809361030E942A268091E100E7
:1054300084FF30C08091E20084FF2CC080E189BDF0
:1054400082E189BD09B400FEFDCF8091D8008F7D37
:105450008093D8008091E1008F7E8093E10080915D
:10546000E2008F7E8093E2008091E2008160809371
:10547000E20080915D03882311F084E007C08091F1
:10548000E30087FD02C081E001C083E080936103F7
:105490000E942B268091E10083FF29C08091E200C9
:1054A00083FF25C08091E100877F8093E10082E047
:1054B0008093610310925D038091E1008E7F809361
:1054C000E1008091E2008E7F8093E2008091E20013
:1054D00080618093E20042E060E080E00E94B428B6
:1054E0008091F00088608093F0000E942926FF914F
:1054F000EF91BF91AF919F918F917F916F915F914C
:105500004F913F912F910F900FBE0F901F901895C4
:105510001F920F920FB60F9211242F933F934F9328
:105520005F936F937F938F939F93AF93BF93CF932B
:10553000DF93EF93FF93C091E900CF708091EC006F
:10554000D82FD17080FDD0E81092E9008091F00052
:10555000877F8093F00078940E94CC2A1092E90013
:105560008091F00088608093F000CD2BCF70C093C5
:10557000E900FF91EF91DF91CF91BF91AF919F91A2
:105580008F917F916F915F914F913F912F910F90EC
:105590000FBE0F901F9018951F93CF93DF93CDB739
:1055A000DEB7AA970FB6F894DEBF0FBECDBFE2E616
:1055B000F3E08091F100819323E0EA36F207C9F726
:1055C0000E9437268091E80083FF2EC180916203FC
:1055D00090916303492F50E04A30510508F024C1EF
:1055E000FA01E857FF4F0C94AE2C803821F0823836
:1055F00009F01AC108C080915E0390915F0399235E
:1056000089F082600FC0809166038F70873008F048
:105610000BC18093E9008091EB0085FB882780F91E
:105620001092E9009091E800977F9093E8008093B2
:10563000F1001092F100D1C0282F2D7F09F0F4C0A5
:10564000882319F0823061F0EFC0809164038130CB
:1056500009F0EAC0933009F080E080935F032EC028
:105660008091640381112AC0809166038F702FEFAF
:10567000280F263008F0D8C08093E9002091EB0075
:1056800020FF1CC0933021F48091EB00806214C095
:105690009091EB0090619093EB0021E030E0A90144
:1056A00002C0440F551F8A95E2F74093EA0010921A
:1056B000EA008091EB0088608093EB001092E90093
:1056C0008091E800877F8093E8000E94E928ACC0C1
:1056D0008111AAC0109164031F778091E300807844
:1056E000812B8093E3008091E800877F8093E8001E
:1056F0000E94E9288091E80080FFFCCF8091E300C0
:1057000080688093E300111102C082E001C083E051
:105710008093610389C08058823008F085C08091F1
:105720006403909165038C3D53E0950779F583E020
:105730008A838AE289834FB7F894DE01139620E0CA
:105740003EE051E2E32FF0E050935700E49120FF58
:1057500003C0E295EF703F5FEF708E2F90E0EA306C
:1057600010F0C79601C0C0968D939D932F5F243192
:1057700049F74FBF8091E800877F8093E8006AE295
:1057800070E0CE0101960E94F52716C06091660375
:1057900070916703AE014F5F5F4F0E943327BC01DA
:1057A000892B09F441C09091E800977F9093E8001D
:1057B00089819A810E9453288091E8008B77809399
:1057C000E80032C0803881F58091E800877F8093BF
:1057D000E80080915D038093F1008091E8008E776E
:1057E00072CF811121C08091640390916503992744
:1057F0000297D4F48091E800877F8093E80080913D
:10580000640380935D030E94E92880915D03811108
:1058100006C08091E30087FD02C081E001C084E002
:10582000809361030E942D268091E80083FF0AC0C7
:105830008091E800877F8093E8008091EB00806290
:105840008093EB00AA960FB6F894DEBF0FBECDBFD3
:10585000DF91CF911F9108950895CF9380916103B7
:105860008823A1F0C091E900CF709091EC00892FBE
:10587000817090FD80E8C82B1092E9008091E800CB
:1058800083FD0E94CC2ACF70C093E900CF91089588
:10589000DB018F939F930E94D22CBF91AF91A29F67
:1058A000800D911DA39F900DB29F900D112408951E
:1058B000991B79E004C0991F961708F0961B881F62
:1058C0007A95C9F780950895AA1BBB1B51E107C0C3
:1058D000AA1FBB1FA617B70710F0A61BB70B881F80
:1058E000991F5A95A9F780959095BC01CD0108950F
:1058F00097FB072E16F4009407D077FD09D00E947D
:10590000642C07FC05D03EF4909581959F4F089537
:10591000709561957F4F0895A1E21A2EAA1BBB1BBB
:10592000FD010DC0AA1FBB1FEE1FFF1FA217B3076B
:10593000E407F50720F0A21BB30BE40BF50B661F81
:10594000771F881F991F1A9469F760957095809545
:1059500090959B01AC01BD01CF010895EE0FFF1F93
:105960000590F491E02D09940E94BC2C332312F48D
:105970008A1B9B0B0C94CD2CA29FB001B39FC0013E
:10598000A39F700D811D1124911DB29F700D811D6B
:105990001124911D08950E94BC2CB7FF0895821B0D
:1059A000930B08950E94BC2CA59F900DB49F900D61
:1059B000A49F800D911D11240895B7FF0C94D22C43
:1059C0000E94D22C821B930B08958F929F92AF92CC
:1059D000BF92CF92DF92EF92FF92CF93DF93EC01D1
:1059E000688179818A819B816115710581059105A5
:1059F00021F464E279ED8BE597E02DE133EF41E0AE
:105A000050E00E94962D49015A019B01AC01A7EA82
:105A1000B1E40E94D22C6B017C01ACEEB4EFA50185
:105A200094010E94E02CDC01CB018C0D9D1DAE1D6C
:105A3000BF1DB7FF03C00197A109B04888839983B0
:105A4000AA83BB839F77DF91CF91FF90EF90DF9088
:105A5000CF90BF90AF909F908F9008950E94E52CBB
:105A6000089580E091E00E94E52C0895A0E0B0E068
:105A70008093000190930101A0930201B093030170
:105A80000895FC014150504030F001900616D1F7C6
:105A90003197CF010895882799270895F999FECF66
:105AA00092BD81BDF89A992780B50895A6E1B0E02E
:105AB00044E050E00C94882DA8E1B0E042E050E0D2
:105AC0000C94882D262FF999FECF92BD81BDF89AAE
:105AD000019700B4021639F01FBA20BD0FB6F89432
